:020000040800F2
:1000000000000320B1130008491300084B13000837
:100010004D1300084F1300085113000800000000A2
:100020000000000000000000000000005313000862
:10003000551300080000000057130008591300086A
:10004000011400080114000801140008011400083C
:10005000011400080114000801140008011400082C
:10006000011400080114000801140008011400081C
:10007000011400080114000801140008011400080C
:1000800001140008011400080114000801140008FC
:1000900001140008011400080114000801140008EC
:1000A00001140008011400080114000801140008DC
:1000B00001140008011400080114000801140008CC
:1000C00001140008011400080114000801140008BC
:1000D00001140008011400080114000801140008AC
:1000E000011400080114000801140008011400089C
:1000F000011400080114000801140008011400088C
:10010000011400080114000801140008011400087B
:10011000011400080114000801140008011400086B
:10012000011400080114000801140008011400085B
:10013000011400080114000801140008011400084B
:10014000011400080114000801140008011400083B
:10015000011400080114000801140008011400082B
:10016000011400080114000801140008011400081B
:100170000114000801140008011400080000000028
:1001800001140008011400080114000801140008FB
:1001900001140008011400080114000801140008EB
:0C01A000011400080114000801140008FC
:1001B00010B5054C237833B9044B13B10448AFF3A1
:1001C00000800123237010BD0C00002000000000FF
:1001D0004C14000808B5034B1BB103490348AFF3A7
:1001E000008008BD00000000100000204C14000832
:1001F00081F0004102E000BF83F0004330B54FEAD8
:1002000041044FEA430594EA050F08BF90EA020F44
:100210001FBF54EA000C55EA020C7FEA645C7FEAD7
:10022000655C00F0E2804FEA5454D4EB5555B8BFFA
:100230006D420CDD2C4480EA020281EA030382EA6B
:10024000000083EA010180EA020281EA0303362DFD
:1002500088BF30BD11F0004F4FEA01314FF4801CD0
:100260004CEA113102D0404261EB410113F0004FE2
:100270004FEA03334CEA133302D0524263EB430399
:1002800094EA050F00F0A780A4F10104D5F1200E37
:100290000DDB02FA0EFC22FA05F2801841F1000192
:1002A00003FA0EF2801843FA05F359410EE0A5F166
:1002B00020050EF1200E012A03FA0EFC28BF4CF097
:1002C000020C43FA05F3C01851EBE37101F000454D
:1002D00007D54FF0000EDCF1000C7EEB00006EEB5A
:1002E0000101B1F5801F1BD3B1F5001F0CD34908E4
:1002F0005FEA30004FEA3C0C04F101044FEA44523B
:1003000012F5800F80F09A80BCF1004F08BF5FEAC1
:10031000500C50F1000041EB045141EA050130BDA1
:100320005FEA4C0C404141EB010111F4801FA4F144
:100330000104E9D191F0000F04BF01460020B1FA99
:1003400081F308BF2033A3F10B03B3F120020CDAD1
:100350000C3208DD02F1140CC2F10C0201FA0CF0AF
:1003600021FA02F10CE002F11402D8BFC2F1200C14
:1003700001FA02F120FA0CFCDCBF41EA0C019040CA
:10038000E41AA2BF01EB0451294330BD6FEA040413
:100390001F3C1CDA0C340EDC04F11404C4F12002FE
:1003A00020FA04F001FA02F340EA030021FA04F310
:1003B00045EA030130BDC4F10C04C4F1200220FA67
:1003C00002F001FA04F340EA0300294630BD21FAA5
:1003D00004F0294630BD94F0000F83F4801306BF6B
:1003E00081F480110134013D4EE77FEA645C18BF5F
:1003F0007FEA655C29D094EA050F08BF90EA020FF6
:1004000005D054EA000C04BF1946104630BD91EAED
:10041000030F1EBF0021002030BD5FEA545C05D1F0
:100420004000494128BF41F0004130BD14F580042F
:100430003CBF01F5801130BD01F0004545F0FE41A3
:1004400041F470014FF0000030BD7FEA645C1ABFD8
:10045000194610467FEA655C1CBF0B46024650EA0F
:10046000013406BF52EA033591EA030F41F400213B
:1004700030BD00BF90F0000F04BF0021704730B5C1
:100480004FF4806404F132044FF000054FF0000196
:1004900050E700BF90F0000F04BF0021704730B557
:1004A0004FF4806404F1320410F0004548BF40422C
:1004B0004FF000013EE700BF42004FEAE2014FEA81
:1004C00031014FEA02701FBF12F07F4393F07F4F5C
:1004D00081F06051704732F07F4208BF704793F05F
:1004E0007F4F04BF41F40021704730B54FF4607472
:1004F00001F0004521F000411CE700BF50EA010275
:1005000008BF704730B54FF000050AE050EA01021D
:1005100008BF704730B511F0004502D5404261EB8D
:1005200041014FF4806404F132045FEA915C3FF4CE
:10053000D8AE4FF003025FEADC0C18BF03325FEA6B
:10054000DC0C18BF033202EBDC02C2F1200300FA1C
:1005500003FC20FA02F001FA03FE40EA0E0021FA41
:1005600002F11444BDE600BF4FF0FF3C06E000BFBF
:100570004FF0010C02E000BF4FF0010C4DF804CD2C
:100580004FEA410C7FEA6C5C4FEA430C18BF7FEAEC
:100590006C5C1BD001B050EA410C0CBF52EA430C1A
:1005A00091EA030F02BF90EA020F0020704710F19A
:1005B000000F91EA030F58BF994208BF90422CBF29
:1005C000D8176FEAE37040F0010070474FEA410C22
:1005D0007FEA6C5C02D150EA013C07D14FEA430C40
:1005E0007FEA6C5CD6D152EA033CD3D05DF8040BB1
:1005F000704700BF8446104662468C4619466346E3
:1006000000E000BF01B5FFF7B7FF002848BF10F1B9
:10061000000F01BD4DF808EDFFF7F4FF0CBF0120FE
:1006200000205DF808FB00BF4DF808EDFFF7EAFF7A
:1006300034BF012000205DF808FB00BF4DF808ED35
:10064000FFF7E0FF94BF012000205DF808FB00BF2A
:100650004DF808EDFFF7CEFF94BF012000205DF8B4
:1006600008FB00BF4DF808EDFFF7C4FF34BF0120C1
:1006700000205DF808FB00BF53B94AB9002908BF44
:1006800000281CBF4FF0FF314FF0FF3000F072B96F
:10069000ADF1080C6DE904CE00F006F8DDF804E0D9
:1006A000DDE9022304B070472DE9F047089E0446B7
:1006B0008846002B4BD18A42154667D9B2FA82F29E
:1006C0004AB1C2F1200701FA02F320FA07F7954078
:1006D00047EA030894404FEA154E230CB8FBFEF797
:1006E0001FFA85FC0EFB178843EA084307FB0CF151
:1006F000994209D9EB1807F1FF3080F01B8199422C
:1007000040F21881023F2B445B1AA4B2B3FBFEF007
:100710000EFB103344EA034400FB0CFCA44509D94A
:100720002C1900F1FF3380F00781A44540F20481C9
:1007300002382C4440EA0740A4EB0C0400271EB109
:10074000D4400023C6E900433946BDE8F0878B4218
:1007500009D9002E00F0EB800027C6E900013846D9
:100760003946BDE8F087B3FA83F7002F47D18B42B3
:1007700002D3824200F2FA80841A61EB0303012063
:100780009846002EE0D0C6E90048DDE702B9FFDE5A
:10079000B2FA82F2002A40F08F80491B4FEA154ED0
:1007A0001FFA85F80127B1FBFEFC230C0EFB1C1180
:1007B00043EA014308FB0CF1994207D9EB180CF10D
:1007C000FF3002D2994200F2CD808446591AA3B27A
:1007D000B1FBFEF00EFB101443EA044408FB00F8E2
:1007E000A04507D92C1900F1FF3302D2A04500F231
:1007F000B6801846A4EB080440EA0C409FE7C7F116
:10080000200CBB4022FA0CFE4EEA030E01FA07F45C
:1008100020FA0CF521FA0CF34FEA1E482543B3FBEE
:10082000F8F92C0C08FB19331FFA8EFA44EA03433B
:1008300009FB0AF49C4202FA07F200FA07F10BD90D
:100840001EEB030309F1FF3080F087809C4240F2E9
:100850008480A9F1020973441B1BADB2B3FBF8F00D
:1008600008FB103345EA034400FB0AFAA24508D905
:100870001EEB040400F1FF336BD2A24569D90238A4
:10088000744440EA0940A0FB0289A4EB0A044C45E9
:10089000C2464B4654D351D0002E69D0B1EB0A0565
:1008A00064EB030404FA0CFCFD40FC404CEA050533
:1008B000C6E90054002747E7C2F1200320FA03F7F6
:1008C000954001FA02F021FA03F34FEA154E38433E
:1008D000010CB3FBFEF71FFA85F80EFB173341EA54
:1008E000034107FB08F38B4204FA02F407D96918A5
:1008F00007F1FF3C2FD28B422DD9023F2944CB1A5E
:1009000081B2B3FBFEF00EFB103341EA034100FB62
:1009100008F38B4207D9691800F1FF3C17D28B42CC
:1009200015D902382944C91A40EA07473BE7374638
:10093000304609E70746E7E61846FBE64145ABD2F5
:10094000B8EB020A69EB0E0201381346A4E76046D1
:10095000E9E7184695E76746D1E781467CE7023824
:100960002C4447E7ACF1020C2B442FE7384608E74C
:100970003746E9E6704700BF10B504460E4B1878BD
:100980004FF47A73B3FBF0F30C4A1068B0FBF3F04A
:1009900000F088F868B90F2C01D901200AE0002284
:1009A00021464FF0FF3000F049F8034B5C60002017
:1009B00000E0012010BD00BF000000200800002062
:1009C00008B50B4B1A6842F400721A601A6842F4B8
:1009D00080621A601A6842F480721A60032000F084
:1009E0001BF80020FFF7C8FF00F064FC002008BDE2
:1009F000003C0240034A1168034B1B780B44136010
:100A0000704700BF2800002000000020014B18683C
:100A1000704700BF28000020074AD36823F4E06332
:100A20001B041B0C000200F4E060184340F0BF60A0
:100A300040F40030D060704700ED00E030B4174B58
:100A4000DB68C3F30223C3F10704042C28BF04248A
:100A50001D1D062D18D9033B4FF0FF3505FA04F490
:100A600021EA0401994005FA03F322EA030319433A
:100A700000280BDB0901C9B200F1604000F56140BC
:100A800080F8001330BC70470023E5E700F00F004A
:100A90000901C9B2024B1954F4E700BF00ED00E0B0
:100AA00014ED00E00138B0F1807F0AD2064B5860A7
:100AB000064AF02182F823100020986007221A606D
:100AC00070470120704700BF10E000E000ED00E03B
:100AD000042805D0054A136823F004031360704707
:100AE000024A136843F004031360704710E000E00B
:100AF000704708B5FFF7FCFF08BD0000002800F0B4
:100B0000BB8170B582B00446036813F0010F3BD07F
:100B1000A74B9B6803F00C03042B2CD0A44B9B68C1
:100B200003F00C03082B21D06368B3F5803F4FD04E
:100B3000B3F5A02F52D09E4B1A6822F480321A606F
:100B40001A6822F480221A606368002B50D0FFF7E5
:100B50005DFF0546964B1B6813F4003F14D1FFF769
:100B600055FF401B6428F5D903208AE1904B5B6850
:100B700013F4800FD8D08E4B1B6813F4003F03D0C2
:100B80006368002B00F07A81236813F0020F55D0C0
:100B9000874B9B6813F00C0F3ED0854B9B6803F08E
:100BA0000C03082B33D0E368002B68D0814B012263
:100BB0001A60FFF72BFF05467D4B1B6813F0020FF1
:100BC00054D1FFF723FF401B0228F5D9032058E139
:100BD000774A136843F480331360B5E7744B1A689F
:100BE00042F480221A601A6842F480321A60ABE73D
:100BF000FFF70CFF05466E4B1B6813F4003FC3D094
:100C0000FFF704FF401B6428F5D9032039E1684B46
:100C10005B6813F4800FC6D1654B1B6813F0020F9D
:100C200004D0E368012B01D001202AE1604A136857
:100C300023F0F803216943EAC1031360236813F02A
:100C4000080F40D0636963B35B4B01221A60FFF762
:100C5000DDFE0546564B5B6F13F0020F33D1FFF7F5
:100C6000D5FE401B0228F5D903200AE1504A13683B
:100C700023F0F803216943EAC1031360DEE74D4B1B
:100C800000221A60FFF7C2FE0546494B1B6813F0AD
:100C9000020FD3D0FFF7BAFE401B0228F5D903207C
:100CA000EFE0454B00221A60FFF7B0FE0546404BCF
:100CB0005B6F13F0020F06D0FFF7A8FE401B02285F
:100CC000F5D90320DDE0236813F0040F79D0384B09
:100CD0001B6C13F0805F33D100230193344B1A6CEB
:100CE00042F080521A641B6C03F080530193019B05
:100CF0000125324B1B6813F4807F23D0A368012B9E
:100D000034D0052B38D02A4B1A6F22F001021A6713
:100D10001A6F22F004021A67A368002B36D0FFF77F
:100D200075FE0646224B1B6F13F0020F48D1FFF7EA
:100D30006DFE801B41F288339842F3D90320A0E076
:100D40000025D6E71D4A136843F480731360FFF74C
:100D50005DFE0646194B1B6813F4807FCED1FFF76A
:100D600055FE801B0228F5D903208AE0104A136F34
:100D700043F001031367CFE70D4B1A6F42F00402F3
:100D80001A671A6F42F001021A67C5E7FFF73EFEC5
:100D90000646074B1B6F13F0020F11D0FFF736FE0C
:100DA000801B41F288339842F3D9032069E000BFE9
:100DB0000038024000004742800E47420070004069
:100DC000E5B9A369002B5BD0304A926802F00C02AF
:100DD000082A58D0022B17D02D4B00221A60FFF79B
:100DE00015FE0446294B1B6813F0007F42D0FFF725
:100DF0000DFE001B0228F5D9032042E0234A136CA4
:100E000023F080531364DCE7214B00221A60FFF7C4
:100E1000FDFD05461D4B1B6813F0007F06D0FFF754
:100E2000F5FD401B0228F5D903202AE0E369226A78
:100E30001343626A43EA8213A26A5208013A43EA00
:100E40000243E26A43EA0263104A5360104B0122F4
:100E50001A60FFF7DBFD04460C4B1B6813F0007FA4
:100E600006D1FFF7D3FD001B0228F5D9032008E0C7
:100E7000002006E0002004E001207047012000E08F
:100E8000002002B070BD0120FBE700BF0038024027
:100E900060004742264B9B6803F00C03042B44D0B0
:100EA000082B01D0234870472DE9F04B204B5A689E
:100EB00002F03F025B6813F4800F13D01C4B59689B
:100EC000C1F3881100231C48A1FB0001FFF7D4FBEC
:100ED000174B5B68C3F3014301335B00B0FBF3F0D6
:100EE000BDE8F08B124B5B68C3F388131E460027E6
:100EF0005C010025E41A65EB0705A90141EA94614C
:100F0000A001001B61EB0501CB0043EA5073C40054
:100F1000A01943EB07018B0243EA90538402204659
:100F200019460023FFF7A8FBD2E70348704700BF2C
:100F3000003802400024F40040787D01002800F0D1
:100F40009D8070B504464F4B1B6803F00F038B4226
:100F500009D2CBB24B4A1370136803F00F038B42D4
:100F600001D0012070BD236813F0020F17D013F0D9
:100F7000040F04D0444A936843F4E0539360236819
:100F800013F0080F04D0404A936843F46043936021
:100F90003D4A936823F0F003A068034393600D4635
:100FA000236813F0010F32D06368012B21D09A1E01
:100FB000012A25D9344A126812F0020F60D0324952
:100FC0008A6822F0030213438B60FFF71FFD064679
:100FD0002D4B9B6803F00C036268B3EB820F16D0B5
:100FE000FFF714FD801B41F288339842F0D90320AB
:100FF000B8E7254A126812F4003FE0D10120B1E7BA
:10100000214A126812F0007FD9D10120AAE71D4BB6
:101010001B6803F00F03AB4209D9EAB2194B1A70EF
:101020001B6803F00F03AB4201D001209AE723684D
:1010300013F0040F06D0144A936823F4E053E168D8
:101040000B439360236813F0080F07D00E4A936890
:1010500023F46043216943EAC1039360FFF71AFF59
:10106000094B9B68C3F30313084AD35CD840084B71
:1010700018600020FFF780FC002073E70120704714
:1010800001206FE7003C0240003802406414000871
:1010900008000020014B1868704700BF08000020BE
:1010A000014B1860704700BF003C024091FBF0F319
:1010B00000FB131307EE903AF8EEE77AFDEEE77ABD
:1010C00017EE903A13B191FBF0F0704791FBF0F1FD
:1010D000481E70470000000070B5064610EE100A6A
:1010E000FFF7EAF904460D461FA3D3E90023FFF7F3
:1010F0009BFA58BB1EA3D3E9002320462946FFF7DD
:101100009DFAA0B91CA3D3E9002320462946FFF786
:1011100095FA88B91AA3D3E9002320462946FFF798
:101120008DFA70B931460C48FFF7C0FF0FE0314629
:101130000A48FFF7BBFF0AE031460948FFF7B6FF50
:1011400005E031460748FFF7B1FF00E00820FFF750
:10115000A7FF70BDAFF3008080C3C901002D31012E
:1011600080B14F0100366E01CDCCCCCCCCCCFC3F55
:10117000CDCCCCCCCCCC00403333333333330340F1
:101180009A9999999999054082B000230193064B49
:101190001A6B42F080021A631B6B03F08003019309
:1011A000019B02B0704700BF00380240FEE700001C
:1011B00000B595B000220192244B196C41F080518A
:1011C00019641B6C03F080530193019B0292204928
:1011D0000B6823F4404343F480430B600B6803F433
:1011E00040430293029B0223089301230B93102395
:1011F0000C930E9208A8FFF781FCF0B90F2303931C
:101200000021049105910691079103A8FFF796FE2E
:10121000B8B9FFF73FFF0F4BA3FB00308009FFF782
:1012200041FC0420FFF754FC002211464FF0FF3030
:10123000FFF704FC15B05DF804FB8E210648FFF7AC
:10124000B5FF9C210448FFF7B1FF00BF0038024002
:1012500000700040D34D62107C14000808B50D48A2
:101260009FED0D0AFFF738FF0C489FED0D0AFFF7C1
:1012700033FF0C489FED0C0AFFF72EFF0B489FED44
:101280000C0AFFF729FFFFF79BFBFFF791FFFFF722
:101290007BFFFEE7001BB7006666A63FC0F35E015A
:1012A000CDCC0C4000512502CDCC2C400095BA0A83
:1012B0003333534010B582B000240094214B5A6C54
:1012C00042F480425A645A6C02F480420092009ABE
:1012D00001941A6C42F080521A641B6C03F0805324
:1012E0000193019B0320FFF797FB224621466FF0F5
:1012F0000B00FFF7A3FB224621466FF00A00FFF721
:101300009DFB224621466FF00900FFF797FB22461E
:1013100021466FF00400FFF791FB224621466FF053
:101320000300FFF78BFB224621466FF00100FFF719
:1013300085FB224621464FF0FF30FFF77FFB02B0CE
:1013400010BD00BF003802407047FEE7FEE7FEE731
:10135000FEE770477047704708B5FFF74BFBFFF794
:10136000C8FB08BD0F49D1F8883043F47003C1F8B9
:1013700088300D4B1A6842F001021A600020986014
:101380001A6822F0847222F480321A60074A5A6086
:101390001A6822F480221A60D8604FF000638B60D4
:1013A000704700BF00ED00E000380240103000241C
:1013B000DFF834D0002103E00C4B5B58435004317C
:1013C0000B480C4B42189A42F6D30B4A02E000231A
:1013D00042F8043B094B9A42F9D3FFF7C3FF00F0F0
:1013E00011F8FFF73BFF7047000003209C14000832
:1013F000000000200C0000200C0000202C00002029
:10140000FEE7000070B50D4E0D4CA41BA410002586
:10141000A54209D10B4E0C4C00F018F8A41BA410E7
:101420000025A54205D170BD56F8253098470135F5
:10143000EEE756F8253098470135F2E79414000896
:10144000941400089414000898140008F8B500BF1C
:10145000F8BC08BC9E467047F8B500BFF8BC08BC95
:041460009E467047ED
:101464000000000000000000010203040607080950
:1014740000000000010203042E2E2F5372632F6D0F
:0814840061696E2E6300000097
:08148C001CF2FF7F01000000CB
:04149400D501000876
:04149800B101000896
:0C149C0001000000100000000024F4001B
:04000005080013B12B
:00000001FF
